{
  "contractName": "PaymentProcessor",
  "abi": [
    {
      "inputs": [
        {
          "internalType": "address",
          "name": "adminAddress",
          "type": "address"
        },
        {
          "internalType": "address",
          "name": "daiAddress",
          "type": "address"
        }
      ],
      "stateMutability": "nonpayable",
      "type": "constructor"
    },
    {
      "anonymous": false,
      "inputs": [
        {
          "indexed": false,
          "internalType": "address",
          "name": "clientAddress",
          "type": "address"
        },
        {
          "indexed": false,
          "internalType": "uint256",
          "name": "totalAmount",
          "type": "uint256"
        },
        {
          "indexed": false,
          "internalType": "string",
          "name": "paymentId",
          "type": "string"
        },
        {
          "indexed": false,
          "internalType": "bytes32",
          "name": "blockHash",
          "type": "bytes32"
        },
        {
          "indexed": false,
          "internalType": "uint256",
          "name": "timestamp",
          "type": "uint256"
        }
      ],
      "name": "PaymentDone",
      "type": "event"
    },
    {
      "inputs": [],
      "name": "admin",
      "outputs": [
        {
          "internalType": "address",
          "name": "",
          "type": "address"
        }
      ],
      "stateMutability": "view",
      "type": "function",
      "constant": true
    },
    {
      "inputs": [],
      "name": "dai",
      "outputs": [
        {
          "internalType": "contract IERC20",
          "name": "",
          "type": "address"
        }
      ],
      "stateMutability": "view",
      "type": "function",
      "constant": true
    },
    {
      "inputs": [
        {
          "internalType": "uint256",
          "name": "amount",
          "type": "uint256"
        },
        {
          "internalType": "string",
          "name": "paymentId",
          "type": "string"
        }
      ],
      "name": "pay",
      "outputs": [],
      "stateMutability": "nonpayable",
      "type": "function"
    }
  ],
  "bytecode": "0x608060405234801561001057600080fd5b5060405161070b38038061070b833981810160405281019061003291906100cf565b816000806101000a81548173ffffffffffffffffffffffffffffffffffffffff021916908373ffffffffffffffffffffffffffffffffffffffff16021790555080600160006101000a81548173ffffffffffffffffffffffffffffffffffffffff021916908373ffffffffffffffffffffffffffffffffffffffff1602179055505050610154565b6000815190506100c98161013d565b92915050565b600080604083850312156100e257600080fd5b60006100f0858286016100ba565b9250506020610101858286016100ba565b9150509250929050565b60006101168261011d565b9050919050565b600073ffffffffffffffffffffffffffffffffffffffff82169050919050565b6101468161010b565b811461015157600080fd5b50565b6105a8806101636000396000f3fe608060405234801561001057600080fd5b50600436106100415760003560e01c8063154fbbc414610046578063f4b9fa7514610062578063f851a44014610080575b600080fd5b610060600480360381019061005b91906102b0565b61009e565b005b61006a6101c9565b604051610077919061041f565b60405180910390f35b6100886101ef565b6040516100959190610371565b60405180910390f35b600160009054906101000a900473ffffffffffffffffffffffffffffffffffffffff1673ffffffffffffffffffffffffffffffffffffffff166323b872dd3360008054906101000a900473ffffffffffffffffffffffffffffffffffffffff16866040518463ffffffff1660e01b815260040161011d9392919061038c565b602060405180830381600087803b15801561013757600080fd5b505af115801561014b573d6000803e3d6000fd5b505050506040513d601f19601f8201168201806040525081019061016f9190610287565b50600060014361017f919061044b565b4090507fdd82839410313e04d602fd3e29ccbcf75962650c1957d7f2379e7f7fa250f5353385858585426040516101bb969594939291906103c3565b60405180910390a150505050565b600160009054906101000a900473ffffffffffffffffffffffffffffffffffffffff1681565b60008054906101000a900473ffffffffffffffffffffffffffffffffffffffff1681565b60008151905061022281610544565b92915050565b60008083601f84011261023a57600080fd5b8235905067ffffffffffffffff81111561025357600080fd5b60208301915083600182028301111561026b57600080fd5b9250929050565b6000813590506102818161055b565b92915050565b60006020828403121561029957600080fd5b60006102a784828501610213565b91505092915050565b6000806000604084860312156102c557600080fd5b60006102d386828701610272565b935050602084013567ffffffffffffffff8111156102f057600080fd5b6102fc86828701610228565b92509250509250925092565b6103118161047f565b82525050565b6103208161049d565b82525050565b61032f816104d1565b82525050565b6000610341838561043a565b935061034e8385846104f5565b61035783610533565b840190509392505050565b61036b816104c7565b82525050565b60006020820190506103866000830184610308565b92915050565b60006060820190506103a16000830186610308565b6103ae6020830185610308565b6103bb6040830184610362565b949350505050565b600060a0820190506103d86000830189610308565b6103e56020830188610362565b81810360408301526103f8818688610335565b90506104076060830185610317565b6104146080830184610362565b979650505050505050565b60006020820190506104346000830184610326565b92915050565b600082825260208201905092915050565b6000610456826104c7565b9150610461836104c7565b92508282101561047457610473610504565b5b828203905092915050565b600061048a826104a7565b9050919050565b60008115159050919050565b6000819050919050565b600073ffffffffffffffffffffffffffffffffffffffff82169050919050565b6000819050919050565b60006104dc826104e3565b9050919050565b60006104ee826104a7565b9050919050565b82818337600083830152505050565b7f4e487b7100000000000000000000000000000000000000000000000000000000600052601160045260246000fd5b6000601f19601f8301169050919050565b61054d81610491565b811461055857600080fd5b50565b610564816104c7565b811461056f57600080fd5b5056fea26469706673582212205d7f10e8e5c3883f89587d613de35ec662c6b9017485bfa40189beff964caa5d64736f6c63430008040033",
  "immutableReferences": {},
  "source": "// SPDX-License-Identifier: MIT\npragma solidity ^0.8.4;\n\nimport \"../../node_modules/@openzeppelin/contracts/token/ERC20/IERC20.sol\";\n\ncontract PaymentProcessor {\n    address public admin;\n    IERC20 public dai;\n\n    event PaymentDone(\n        address clientAddress,\n        uint256 totalAmount,\n        string paymentId,\n        bytes32 blockHash,\n        uint256 timestamp\n    );\n\n    constructor(address adminAddress, address daiAddress) {\n        admin = adminAddress;\n        dai = IERC20(daiAddress);\n    }\n\n    function pay(uint256 amount, string calldata paymentId) external {\n        dai.transferFrom(msg.sender, admin, amount);\n        bytes32 blockHash = blockhash(block.number - 1);\n        emit PaymentDone(msg.sender, amount, paymentId, blockHash, block.timestamp);\n    }\n}\n",
  "sourcePath": "C:\\Users\\Sulav\\Desktop\\VIT\\Capstone\\ecommerce\\ecommerceNodeBackend\\blockchain\\contracts\\PaymentProcessor.sol",
  "compiler": {
    "name": "solc",
    "version": "0.8.4+commit.c7e474f2.Emscripten.clang"
  },
  "schemaVersion": "3.4.13",
  "updatedAt": "2023-04-15T17:34:20.516Z",
  "networkType": "ethereum",
  "devdoc": {
    "kind": "dev",
    "methods": {},
    "version": 1
  },
  "userdoc": {
    "kind": "user",
    "methods": {},
    "version": 1
  }
}